{
  "contractName": "LandRegistry",
  "abi": [
    {
      "constant": true,
      "inputs": [],
      "name": "totalRegistered",
      "outputs": [
        {
          "name": "",
          "type": "uint256"
        }
      ],
      "payable": false,
      "stateMutability": "view",
      "type": "function",
      "signature": "0x927416c0"
    },
    {
      "constant": true,
      "inputs": [
        {
          "name": "",
          "type": "uint256"
        }
      ],
      "name": "townShips",
      "outputs": [
        {
          "name": "id",
          "type": "uint256"
        },
        {
          "name": "townshipId",
          "type": "uint256"
        },
        {
          "name": "owner_nid",
          "type": "uint256"
        },
        {
          "name": "owner_name",
          "type": "string"
        },
        {
          "name": "owner_address",
          "type": "string"
        },
        {
          "name": "owner_father_name",
          "type": "string"
        },
        {
          "name": "owner_mother_name",
          "type": "string"
        }
      ],
      "payable": false,
      "stateMutability": "view",
      "type": "function",
      "signature": "0xe54b7306"
    },
    {
      "inputs": [],
      "payable": false,
      "stateMutability": "nonpayable",
      "type": "constructor",
      "signature": "constructor"
    },
    {
      "constant": false,
      "inputs": [
        {
          "name": "townshipId",
          "type": "uint256"
        },
        {
          "name": "owner_nid",
          "type": "uint256"
        },
        {
          "name": "owner_name",
          "type": "string"
        },
        {
          "name": "owner_address",
          "type": "string"
        },
        {
          "name": "owner_father_name",
          "type": "string"
        },
        {
          "name": "owner_mother_name",
          "type": "string"
        }
      ],
      "name": "registerTownShip",
      "outputs": [],
      "payable": false,
      "stateMutability": "nonpayable",
      "type": "function",
      "signature": "0xb1b0d9f6"
    }
  ],
  "bytecode": "0x60806040526000805534801561001457600080fd5b506108c5806100246000396000f3fe6080604052600436106100565763ffffffff7c0100000000000000000000000000000000000000000000000000000000600035041663927416c0811461005b578063b1b0d9f614610082578063e54b7306146102d8575b600080fd5b34801561006757600080fd5b506100706104c1565b60408051918252519081900360200190f35b34801561008e57600080fd5b506102d6600480360360c08110156100a557600080fd5b8135916020810135918101906060810160408201356401000000008111156100cc57600080fd5b8201836020820111156100de57600080fd5b8035906020019184600183028401116401000000008311171561010057600080fd5b91908080601f016020809104026020016040519081016040528093929190818152602001838380828437600092019190915250929594936020810193503591505064010000000081111561015357600080fd5b82018360208201111561016557600080fd5b8035906020019184600183028401116401000000008311171561018757600080fd5b91908080601f01602080910402602001604051908101604052809392919081815260200183838082843760009201919091525092959493602081019350359150506401000000008111156101da57600080fd5b8201836020820111156101ec57600080fd5b8035906020019184600183028401116401000000008311171561020e57600080fd5b91908080601f016020809104026020016040519081016040528093929190818152602001838380828437600092019190915250929594936020810193503591505064010000000081111561026157600080fd5b82018360208201111561027357600080fd5b8035906020019184600183028401116401000000008311171561029557600080fd5b91908080601f0160208091040260200160405190810160405280939291908181526020018383808284376000920191909152509295506104c7945050505050565b005b3480156102e457600080fd5b50610302600480360360208110156102fb57600080fd5b50356105a0565b6040518088815260200187815260200186815260200180602001806020018060200180602001858103855289818151815260200191508051906020019080838360005b8381101561035d578181015183820152602001610345565b50505050905090810190601f16801561038a5780820380516001836020036101000a031916815260200191505b5085810384528851815288516020918201918a019080838360005b838110156103bd5781810151838201526020016103a5565b50505050905090810190601f1680156103ea5780820380516001836020036101000a031916815260200191505b50858103835287518152875160209182019189019080838360005b8381101561041d578181015183820152602001610405565b50505050905090810190601f16801561044a5780820380516001836020036101000a031916815260200191505b50858103825286518152865160209182019188019080838360005b8381101561047d578181015183820152602001610465565b50505050905090810190601f1680156104aa5780820380516001836020036101000a031916815260200191505b509b50505050505050505050505060405180910390f35b60005481565b6000805460019081018083556040805160e08101825282815260208082018c81528284018c8152606084018c8152608085018c905260a085018b905260c085018a905295885286835293909620825181559551948601949094559051600285015590518051919392610541926003850192909101906107fe565b506080820151805161055d9160048401916020909101906107fe565b5060a082015180516105799160058401916020909101906107fe565b5060c082015180516105959160068401916020909101906107fe565b505050505050505050565b60016020818152600092835260409283902080548184015460028084015460038501805489519881161561010002600019011692909204601f81018790048702880187019098528787529296919592949091908301828280156106445780601f1061061957610100808354040283529160200191610644565b820191906000526020600020905b81548152906001019060200180831161062757829003601f168201915b5050505060048301805460408051602060026001851615610100026000190190941693909304601f81018490048402820184019092528181529495949350908301828280156106d45780601f106106a9576101008083540402835291602001916106d4565b820191906000526020600020905b8154815290600101906020018083116106b757829003601f168201915b5050505060058301805460408051602060026001851615610100026000190190941693909304601f81018490048402820184019092528181529495949350908301828280156107645780601f1061073957610100808354040283529160200191610764565b820191906000526020600020905b81548152906001019060200180831161074757829003601f168201915b5050505060068301805460408051602060026001851615610100026000190190941693909304601f81018490048402820184019092528181529495949350908301828280156107f45780601f106107c9576101008083540402835291602001916107f4565b820191906000526020600020905b8154815290600101906020018083116107d757829003601f168201915b5050505050905087565b828054600181600116156101000203166002900490600052602060002090601f016020900481019282601f1061083f57805160ff191683800117855561086c565b8280016001018555821561086c579182015b8281111561086c578251825591602001919060010190610851565b5061087892915061087c565b5090565b61089691905b808211156108785760008155600101610882565b9056fea165627a7a72305820dd7cdd95702db62e72e40e23b6b62a38b4a9fcd8359497c09e2823cc06cd174a0029",
  "source": "pragma solidity ^0.5.0;\n\ncontract LandRegistry {\n  uint public totalRegistered = 0;\n  struct Township {\n    uint id;\n    uint townshipId;\n    uint owner_nid;\n    string owner_name;\n    string owner_address;\n    string owner_father_name;\n    string owner_mother_name;\n  }\n\n  mapping(uint => Township) public townShips;\n\n  constructor() public {\n      \n  }\n\n  function registerTownShip(\n    uint townshipId,\n    uint owner_nid,\n    string memory owner_name,\n    string memory owner_address,\n    string memory owner_father_name,\n    string memory owner_mother_name\n  ) public {\n    totalRegistered++;\n    townShips[totalRegistered] = Township(\n      totalRegistered,\n      townshipId,\n      owner_nid,\n      owner_name,\n      owner_address,\n      owner_father_name,\n      owner_mother_name\n    );\n  }\n}",
  "sourcePath": "/Users/primez/Documents/dapps/blockchain-land-registry-sc/contracts/LandRegistry.sol",
  "compiler": {
    "name": "solc",
    "version": "0.5.0+commit.1d4f565a.Emscripten.clang"
  },
  "schemaVersion": "3.0.1",
  "updatedAt": "2019-09-04T01:49:06.403Z",
  "devdoc": {
    "methods": {}
  },
  "userdoc": {
    "methods": {}
  }
}