{
  "contractName": "LandRegistry",
  "abi": [
    {
      "constant": true,
      "inputs": [],
      "name": "totalRegistered",
      "outputs": [
        {
          "name": "",
          "type": "uint256"
        }
      ],
      "payable": false,
      "stateMutability": "view",
      "type": "function",
      "signature": "0x927416c0"
    },
    {
      "constant": true,
      "inputs": [
        {
          "name": "",
          "type": "uint256"
        }
      ],
      "name": "townShips",
      "outputs": [
        {
          "name": "id",
          "type": "uint256"
        },
        {
          "name": "townshipId",
          "type": "uint256"
        },
        {
          "name": "owner_nid",
          "type": "uint256"
        },
        {
          "name": "owner_name",
          "type": "string"
        },
        {
          "name": "owner_address",
          "type": "string"
        },
        {
          "name": "owner_father_name",
          "type": "string"
        },
        {
          "name": "owner_mother_name",
          "type": "string"
        },
        {
          "name": "created_at",
          "type": "uint256"
        }
      ],
      "payable": false,
      "stateMutability": "view",
      "type": "function",
      "signature": "0xe54b7306"
    },
    {
      "constant": false,
      "inputs": [
        {
          "name": "townshipId",
          "type": "uint256"
        },
        {
          "name": "owner_nid",
          "type": "uint256"
        },
        {
          "name": "owner_name",
          "type": "string"
        },
        {
          "name": "owner_address",
          "type": "string"
        },
        {
          "name": "owner_father_name",
          "type": "string"
        },
        {
          "name": "owner_mother_name",
          "type": "string"
        }
      ],
      "name": "registerTownShip",
      "outputs": [],
      "payable": false,
      "stateMutability": "nonpayable",
      "type": "function",
      "signature": "0xb1b0d9f6"
    }
  ],
  "bytecode": "0x60806040526000805534801561001457600080fd5b506108e4806100246000396000f3fe6080604052600436106100565763ffffffff7c0100000000000000000000000000000000000000000000000000000000600035041663927416c0811461005b578063b1b0d9f614610082578063e54b7306146102d8575b600080fd5b34801561006757600080fd5b506100706104c8565b60408051918252519081900360200190f35b34801561008e57600080fd5b506102d6600480360360c08110156100a557600080fd5b8135916020810135918101906060810160408201356401000000008111156100cc57600080fd5b8201836020820111156100de57600080fd5b8035906020019184600183028401116401000000008311171561010057600080fd5b91908080601f016020809104026020016040519081016040528093929190818152602001838380828437600092019190915250929594936020810193503591505064010000000081111561015357600080fd5b82018360208201111561016557600080fd5b8035906020019184600183028401116401000000008311171561018757600080fd5b91908080601f01602080910402602001604051908101604052809392919081815260200183838082843760009201919091525092959493602081019350359150506401000000008111156101da57600080fd5b8201836020820111156101ec57600080fd5b8035906020019184600183028401116401000000008311171561020e57600080fd5b91908080601f016020809104026020016040519081016040528093929190818152602001838380828437600092019190915250929594936020810193503591505064010000000081111561026157600080fd5b82018360208201111561027357600080fd5b8035906020019184600183028401116401000000008311171561029557600080fd5b91908080601f0160208091040260200160405190810160405280939291908181526020018383808284376000920191909152509295506104ce945050505050565b005b3480156102e457600080fd5b50610302600480360360208110156102fb57600080fd5b50356105b9565b604051808981526020018881526020018781526020018060200180602001806020018060200186815260200185810385528a818151815260200191508051906020019080838360005b8381101561036357818101518382015260200161034b565b50505050905090810190601f1680156103905780820380516001836020036101000a031916815260200191505b5085810384528951815289516020918201918b019080838360005b838110156103c35781810151838201526020016103ab565b50505050905090810190601f1680156103f05780820380516001836020036101000a031916815260200191505b5085810383528851815288516020918201918a019080838360005b8381101561042357818101518382015260200161040b565b50505050905090810190601f1680156104505780820380516001836020036101000a031916815260200191505b50858103825287518152875160209182019189019080838360005b8381101561048357818101518382015260200161046b565b50505050905090810190601f1680156104b05780820380516001836020036101000a031916815260200191505b509c5050505050505050505050505060405180910390f35b60005481565b600080546001908101808355604080516101008101825282815260208082018c81528284018c8152606084018c8152608085018c905260a085018b905260c085018a90524260e08601529588528683529390962082518155955194860194909455905160028501559051805191939261054f9260038501929091019061081d565b506080820151805161056b91600484019160209091019061081d565b5060a0820151805161058791600584019160209091019061081d565b5060c082015180516105a391600684019160209091019061081d565b5060e08201518160070155905050505050505050565b60016020818152600092835260409283902080548184015460028084015460038501805489519881161561010002600019011692909204601f810187900487028801870190985287875292969195929490919083018282801561065d5780601f106106325761010080835404028352916020019161065d565b820191906000526020600020905b81548152906001019060200180831161064057829003601f168201915b5050505060048301805460408051602060026001851615610100026000190190941693909304601f81018490048402820184019092528181529495949350908301828280156106ed5780601f106106c2576101008083540402835291602001916106ed565b820191906000526020600020905b8154815290600101906020018083116106d057829003601f168201915b5050505060058301805460408051602060026001851615610100026000190190941693909304601f810184900484028201840190925281815294959493509083018282801561077d5780601f106107525761010080835404028352916020019161077d565b820191906000526020600020905b81548152906001019060200180831161076057829003601f168201915b5050505060068301805460408051602060026001851615610100026000190190941693909304601f810184900484028201840190925281815294959493509083018282801561080d5780601f106107e25761010080835404028352916020019161080d565b820191906000526020600020905b8154815290600101906020018083116107f057829003601f168201915b5050505050908060070154905088565b828054600181600116156101000203166002900490600052602060002090601f016020900481019282601f1061085e57805160ff191683800117855561088b565b8280016001018555821561088b579182015b8281111561088b578251825591602001919060010190610870565b5061089792915061089b565b5090565b6108b591905b8082111561089757600081556001016108a1565b9056fea165627a7a7230582007585c2c064de3a81b0db7e9239ac2de4706dbe398b1ae77c6c6760e6b2dab1e0029",
  "source": "pragma solidity ^0.5.0;\n\ncontract LandRegistry {\n  uint public totalRegistered = 0;\n  struct Township {\n    uint id;\n    uint townshipId;\n    uint owner_nid;\n    string owner_name;\n    string owner_address;\n    string owner_father_name;\n    string owner_mother_name;\n    uint created_at;\n  }\n\n  mapping(uint => Township) public townShips;\n  function registerTownShip(\n    uint townshipId,\n    uint owner_nid,\n    string memory owner_name,\n    string memory owner_address,\n    string memory owner_father_name,\n    string memory owner_mother_name\n  ) public {\n    totalRegistered++;\n    townShips[totalRegistered] = Township(\n      totalRegistered,\n      townshipId,\n      owner_nid,\n      owner_name,\n      owner_address,\n      owner_father_name,\n      owner_mother_name,\n      now\n    );\n  }\n}",
  "sourcePath": "/Users/primez/Documents/dapps/blockchain-land-registr/contracts/LandRegistry.sol",
  "compiler": {
    "name": "solc",
    "version": "0.5.0+commit.1d4f565a.Emscripten.clang"
  },
  "schemaVersion": "3.0.1",
  "updatedAt": "2019-07-08T14:47:18.310Z",
  "devdoc": {
    "methods": {}
  },
  "userdoc": {
    "methods": {}
  }
}